:100000000C942A000C94100B0C943D0B0C946A0B6E
:100010000C94970B0C94C40B0C94F10B0C941E0CC9
:100020000C944B0C0C94780C0C94A50C0C94D20CE6
:100030000C94FF0C0C942C0D0C94590D0C94860D03
:100040000C94B30D0C94E00D0C9447000C944700F5
:100050000C94470011241FBECFE5D8E0DEBFCDBF12
:1000600010E0A8E6B0E001C01D92A33AB107E1F7A5
:1000700010E0A0E6B0E0ECE3FEE202C005900D92D5
:10008000A836B107D9F70E9488120C941C170C945B
:100090000000EF92FF920F931F937B018C0120E0F1
:1000A00030E040E05FE40E94490388238CF0C801FF
:1000B000B70120E030E040E05FE40E94C1010E940F
:1000C000A9039B01AC01205030404040504806C07D
:1000D000C801B7010E94A9039B01AC01B901CA0183
:1000E0001F910F91FF90EF900895A0E0B0E0EBE733
:1000F000F0E00C94E516DC012B01FA019C919230A2
:1001000008F439C1EB018881823008F433C194309E
:1001100069F4843009F02FC111969C91119789815F
:10012000981709F428C1A0E6B0E025C1843009F48D
:1001300021C18230A9F4923009F01DC19A01AD01AC
:1001400088E0EA010990AE01E90109929E0181501F
:10015000C1F7E201898111969C918923818308C1AD
:10016000923009F407C112962D903C901397EB0141
:100170008A819B811496AD90BD90CD90DC901797AD
:10018000EC80FD800E811F819101281B390BB90184
:1001900037FF04C066277727621B730B6032710537
:1001A0000CF061C0121613066CF537014801062EDB
:1001B00004C096948794779467940A94D2F721E0C8
:1001C00030E040E050E004C0220F331F441F551FB1
:1001D0006A95D2F721503040404050402E213F21B7
:1001E00040235123211531054105510521F021E01E
:1001F00030E040E050E079018A01E628F72808293C
:1002000019293CC0232BD1F1260E371E350146019A
:10021000062E04C096948794779467940A94D2F734
:1002200021E030E040E050E004C0220F331F441FC3
:10023000551F6A95D2F721503040404050402A2146
:100240003B214C215D21211531054105510521F04E
:1002500021E030E040E050E059016A01A628B728CB
:10026000C828D9280BC0821593052CF01C01AA249C
:10027000BB24650103C0EE24FF24870111969C91E5
:10028000D20111968C91981709F445C0992339F041
:10029000A80197012A193B094C095D0906C0A6016E
:1002A00095012E193F09400B510B57FD08C01182D3
:1002B0003382228224833583468357831DC081E0A5
:1002C00081833382228288279927DC01821B930B4A
:1002D000A40BB50B84839583A683B7830DC0220F2F
:1002E000331F441F551F24833583468357838281E0
:1002F000938101979383828324813581468157813D
:10030000DA01C9010197A109B1098F5F9F4FAF4F72
:10031000BF4328F30BC0918333822282EA0CFB1C7B
:100320000C1D1D1DE482F5820683178383E0808304
:10033000248135814681578157FF1AC0C901AA27F8
:1003400097FDA095BA2F81709070A070B0705695EF
:10035000479537952795822B932BA42BB52B848318
:100360009583A683B7838281938101969383828349
:10037000DF0101C0D201CD01CDB7DEB7E2E10C94BF
:100380000117A0E2B0E0E7ECF1E00C94F11669830C
:100390007A838B839C832D833E834F835887E9E048
:1003A000EE2EF12CEC0EFD1ECE010196B7010E943F
:1003B000D2048E010F5E1F4FCE010596B8010E9438
:1003C000D2048A8991E089278A8BC701B801AE01DE
:1003D000475E5F4F0E9475000E94FD03A096E6E015
:1003E0000C940D17A0E2B0E0E8EFF1E00C94F116E8
:1003F00069837A838B839C832D833E834F835887C5
:10040000F9E0EF2EF12CEC0EFD1ECE010196B701A6
:100410000E94D2048E010F5E1F4FCE010596B801D7
:100420000E94D204C701B801AE01475E5F4F0E942F
:1004300075000E94FD03A096E6E00C940D17A0E263
:10044000B0E0E5E2F2E00C94E51669837A838B83F1
:100450009C832D833E834F835887CE010196BE0136
:10046000675F7F4F0E94D204CE010596BE016F5E8A
:100470007F4F0E94D2049985923088F0898982301A
:10048000C8F0943019F4823051F404C0843029F457
:10049000923081F480E690E0C6C0923049F420E0CA
:1004A0009A858A89981321E02A87CE010996BBC0D4
:1004B000823049F420E09A858A89981321E02A8BBA
:1004C000CE014196B0C02D843E844F8458886D88FB
:1004D0007E888F88988CEE24FF248701AA24BB2471
:1004E000650140E050E060E070E0E0E0F0E0C10174
:1004F00081709070892BE9F0E60CF71C081D191D1E
:100500009A01AB012A0D3B1D4C1D5D1D80E090E062
:10051000A0E0B0E0E614F7040805190520F481E036
:1005200090E0A0E0B0E0BA01A901480F591F6A1F8E
:100530007B1FAA0CBB1CCC1CDD1C97FE08C081E0F5
:1005400090E0A0E0B0E0A82AB92ACA2ADB2A3196B6
:10055000E032F10549F0660C771C881C991C569412
:10056000479437942794C3CFFA85EA892B893C892D
:100570008B859C85280F391F2E5F3F4F17C0CA01FE
:1005800081709070892B61F016950795F794E79428
:1005900080E090E0A0E0B0E8E82AF92A0A2B1B2BC3
:1005A00076956795579547952F5F3F4F77FDE7CF36
:1005B0000CC0440F551F661F771F17FD4160EE0CDE
:1005C000FF1C001F111F21503040403090E05907A0
:1005D00090E0690790E4790760F32B8F3C8FDB0193
:1005E000CA018F779070A070B07080349105A1051A
:1005F000B10561F447FD0AC0E114F10401051105DC
:1006000029F0405C5F4F6F4F7F4F40781A8EFE1786
:1006100011F081E08A8F4D8F5E8F6F8F78A383E01A
:10062000898FCE0149960E94FD03A096E2E10C94C9
:100630000117A8E1B0E0EFE1F3E00C94F116698353
:100640007A838B839C832D833E834F83588789E0F5
:10065000E82EF12CEC0EFD1ECE010196B7010E9492
:10066000D2048E010F5E1F4FCE010596B8010E9485
:10067000D2048985823040F08989823028F0C70110
:10068000B8010E944A0501C08FEF6896E6E00C941D
:100690000D17A8E1B0E0EFE4F3E00C94F1166983E4
:1006A0007A838B839C832D833E834F83588789E095
:1006B000E82EF12CEC0EFD1ECE010196B7010E9432
:1006C000D2048E010F5E1F4FCE010596B8010E9425
:1006D000D2048985823040F08989823028F0C701B0
:1006E000B8010E944A0501C08FEF6896E6E00C94BD
:1006F0000D17A8E1B0E0EFE7F3E00C94F116698381
:100700007A838B839C832D833E834F83588789E034
:10071000E82EF12CEC0EFD1ECE010196B7010E94D1
:10072000D2048E010F5E1F4FCE010596B8010E94C4
:10073000D2048985823040F08989823028F0C7014F
:10074000B8010E944A0501C081E06896E6E00C9479
:100750000D17ACE0B0E0EFEAF3E00C94F516698316
:100760007A838B839C83CE010196BE016B5F7F4FA2
:100770000E94D2048D81823061F1823050F1843048
:1007800021F48E81882351F12EC02F81388537FDC9
:1007900020C06E812F3131051CF06623F9F023C093
:1007A0008EE190E0821B930B29853A854B855C8511
:1007B00004C056954795379527958A95D2F76623B5
:1007C000B1F050954095309521953F4F4F4F5F4F79
:1007D0000EC020E030E040E050E009C02FEF3FEFD6
:1007E0004FEF5FE704C020E030E040E050E8B9019F
:1007F000CA012C96E2E00C941117DF92EF92FF925F
:100800000F931F93FC01E480F58006811781D1804E
:100810008081823048F480E090E0A0E1B0E0E82AF6
:10082000F92A0A2B1B2BA5C0843009F49FC0823003
:1008300021F4EE24FF24870105C0E114F104010531
:10084000110519F4E0E0F0E096C0628173819FEF3A
:10085000623879070CF05BC022E83FEF261B370BAC
:100860002A3131052CF020E030E040E050E02AC091
:10087000B801A701022E04C0769567955795479554
:100880000A94D2F781E090E0A0E0B0E004C0880FC5
:10089000991FAA1FBB1F2A95D2F70197A109B10979
:1008A0008E219F21A023B1230097A105B10521F03E
:1008B00081E090E0A0E0B0E09A01AB01282B392B59
:1008C0004A2B5B2BDA01C9018F779070A070B07052
:1008D00080349105A105B10539F427FF09C0205CDA
:1008E0003F4F4F4F5F4F04C0215C3F4F4F4F5F4F13
:1008F000E0E0F0E02030A0E03A07A0E04A07A0E402
:100900005A0710F0E1E0F0E079018A0127C0603871
:10091000710564F5FB01E158FF4FD801C7018F77DE
:100920009070A070B07080349105A105B10539F4C4
:10093000E7FE0DC080E490E0A0E0B0E004C08FE3EB
:1009400090E0A0E0B0E0E80EF91E0A1F1B1F17FFA1
:1009500005C016950795F794E794319687E01695AC
:100960000795F794E7948A95D1F705C0EE24FF2404
:100970008701EFEFF0E06E2F679566276795902F60
:100980009F77D794DD24D7948E2F8695492F462BB9
:10099000582F5D29B701CA011F910F91FF90EF9069
:1009A000DF900895FC01DB01408151812281622F9B
:1009B0006F7770E0221F2227221F9381892F880FD3
:1009C000822B282F30E0991F9927991F11969C930D
:1009D000119721153105A9F54115510561057105DD
:1009E00011F482E037C082E89FEF13969C938E93B8
:1009F00012979A01AB0167E0220F331F441F551F66
:100A00006A95D1F783E08C930DC0220F331F441FEA
:100A1000551F12968D919C911397019713969C9355
:100A20008E931297203080E0380780E0480780E4FA
:100A3000580758F314962D933D934D935C93179755
:100A400008952F3F310579F4411551056105710570
:100A500019F484E08C93089564FF03C081E08C93C3
:100A600012C01C9210C02F57304013963C932E9307
:100A7000129783E08C9387E0440F551F661F771F02
:100A80008A95D1F7706414964D935D936D937C9322
:100A9000179708951F93DC01FB019C91923008F495
:100AA00047C08081823008F443C0943051F41196DD
:100AB0001C91843099F58181682F70E0611B710968
:100AC0003FC0843021F0923031F48230B9F181811D
:100AD000882389F12DC011961C9111978230F1F075
:100AE00081811817D9F412962D913C911397828128
:100AF00093818217930794F028173907BCF0149656
:100B00008D919D910D90BC91A02D248135814681C0
:100B10005781281739074A075B0718F4112341F05A
:100B20000AC082179307A407B50740F4112319F0F0
:100B300061E070E005C06FEF7FEF02C060E070E041
:100B4000CB011F910895DF93CF93CDB7DEB7A6E217
:100B5000B0E0E6E2F0E0808180688C93A7E2B0E04C
:100B6000E7E2F0E0808180648C93A7E2B0E0E7E206
:100B7000F0E080818F778C93A7E2B0E0E7E2F0E0CD
:100B8000808180628C93A6E2B0E0E6E2F0E08081B2
:100B9000887F8C93CF91DF910895DF93CF9300D01E
:100BA00000D0CDB7DEB78A837C836B8381E08983F5
:100BB000A7E2B0E0E7E2F0E08081982F907E8A81A2
:100BC000892B8C93A6E2B0E0E6E2F0E080818064BD
:100BD0008C93E6E2F0E0808182958F70882F90E020
:100BE000817090700097A9F3A6E2B0E0E6E2F0E031
:100BF000808180618C93E5E2F0E08081EB81FC8173
:100C0000808389810F900F900F900F90CF91DF918B
:100C10000895DF93CF93CDB7DEB728970FB6F8943A
:100C2000DEBF0FBECDBF8A836B834C838A81843045
:100C300008F0F5C08B81883008F0F1C08C818230DB
:100C400008F0EDC081E089838C81813009F06FC0AC
:100C50008A81282F30E038872F838F8198858130D3
:100C6000910549F12F813885223031052CF48F818F
:100C70009885009761F0D4C02F81388522303105E6
:100C800071F18F81988583309105E9F1C9C0AAE39C
:100C9000B0E0EAE3F0E08081482F8B81282F30E03C
:100CA00081E090E0022E02C0880F991F0A94E2F7BB
:100CB000842B8C93B5C0A7E3B0E0E7E3F0E080813C
:100CC000482F8B81282F30E081E090E0022E02C077
:100CD000880F991F0A94E2F7842B8C93A1C0A4E398
:100CE000B0E0E4E3F0E08081482F8B81282F30E0F2
:100CF00081E090E0022E02C0880F991F0A94E2F76B
:100D0000842B8C938DC0A1E3B0E0E1E3F0E080811F
:100D1000482F8B81282F30E081E090E0022E02C026
:100D2000880F991F0A94E2F7842B8C9379C08C81E9
:100D3000882309F075C08A81282F30E03E832D83F7
:100D40008D819E818130910559F12D813E81223026
:100D500031052CF48D819E81009769F061C02D8151
:100D60003E812230310589F18D819E81833091054C
:100D700009F440C055C0AAE3B0E0EAE3F0E08081A6
:100D8000482F8B81282F30E081E090E0022E02C0B6
:100D9000880F991F0A94E2F7809584238C9340C0B2
:100DA000A7E3B0E0E7E3F0E08081482F8B81282FB4
:100DB00030E081E090E0022E02C0880F991F0A9473
:100DC000E2F7809584238C932BC0A4E3B0E0E4E3A6
:100DD000F0E08081482F8B81282F30E081E090E087
:100DE000022E02C0880F991F0A94E2F7809584238F
:100DF0008C9316C0A1E3B0E0E1E3F0E08081482FDE
:100E00008B81282F30E081E090E0022E02C0880F15
:100E1000991F0A94E2F7809584238C9301C019826C
:100E2000898128960FB6F894DEBF0FBECDBFCF9153
:100E3000DF910895DF93CF93CDB7DEB728970FB634
:100E4000F894DEBF0FBECDBF8A836B834C838A814B
:100E5000843008F0F5C08B81883008F0F1C08C81B7
:100E6000823008F0EDC081E089838C81813009F007
:100E70006FC08A81282F30E038872F838F81988533
:100E80008130910549F12F813885223031052CF4CC
:100E90008F819885009761F0D4C02F8138852230EA
:100EA000310571F18F81988583309105E9F1C9C0D1
:100EB000ABE3B0E0EBE3F0E08081482F8B81282F9B
:100EC00030E081E090E0022E02C0880F991F0A9462
:100ED000E2F7842B8C93B5C0A8E3B0E0E8E3F0E040
:100EE0008081482F8B81282F30E081E090E0022E16
:100EF00002C0880F991F0A94E2F7842B8C93A1C03B
:100F0000A5E3B0E0E5E3F0E08081482F8B81282F56
:100F100030E081E090E0022E02C0880F991F0A9411
:100F2000E2F7842B8C938DC0A2E3B0E0E2E3F0E023
:100F30008081482F8B81282F30E081E090E0022EC5
:100F400002C0880F991F0A94E2F7842B8C9379C012
:100F50008C81882309F075C08A81282F30E03E8378
:100F60002D838D819E818130910559F12D813E81A6
:100F7000223031052CF48D819E81009769F061C08B
:100F80002D813E812230310589F18D819E81833012
:100F9000910509F440C055C0ABE3B0E0EBE3F0E0ED
:100FA0008081482F8B81282F30E081E090E0022E55
:100FB00002C0880F991F0A94E2F7809584238C93CE
:100FC00040C0A8E3B0E0E8E3F0E08081482F8B81E7
:100FD000282F30E081E090E0022E02C0880F991F98
:100FE0000A94E2F7809584238C932BC0A5E3B0E0AC
:100FF000E5E3F0E08081482F8B81282F30E081E00D
:1010000090E0022E02C0880F991F0A94E2F78095A3
:1010100084238C9316C0A2E3B0E0E2E3F0E0808189
:10102000482F8B81282F30E081E090E0022E02C013
:10103000880F991F0A94E2F7809584238C9301C04E
:101040001982898128960FB6F894DEBF0FBECDBFF6
:10105000CF91DF910895DF93CF93CDB7DEB7279778
:101060000FB6F894DEBF0FBECDBF8A836B835D835E
:101070004C838A81843008F077C08B81883008F0F7
:1010800073C081E089838A81282F30E03F832E83DB
:101090004E815F814130510559F18E819F818230AF
:1010A000910534F42E813F812115310569F05DC031
:1010B0004E815F814230510579F18E819F8183306D
:1010C000910509F43DC051C0E9E3F0E08081282F8B
:1010D00030E08B81882F90E0A90102C0559547959B
:1010E0008A95E2F7CA018170EC81FD8180833DC061
:1010F000E6E3F0E08081282F30E08B81882F90E0BC
:10110000A90102C0559547958A95E2F7CA018170F9
:10111000EC81FD81808329C0E9E3F0E08081282F04
:1011200030E08B81882F90E0A90102C0559547954A
:101130008A95E2F7CA018170EC81FD81808315C038
:10114000E9E3F0E08081282F30E08B81882F90E068
:10115000A90102C0559547958A95E2F7CA018170A9
:10116000EC81FD81808301C01982898127960FB6A9
:10117000F894DEBF0FBECDBFCF91DF910895DF930E
:10118000CF9300D000D00F92CDB7DEB78A836B83A8
:101190008A81843008F075C08B81883008F071C076
:1011A00081E089838A81282F30E03D832C838C81E4
:1011B0009D818130910549F12C813D81223031059D
:1011C0002CF48C819D81009761F05CC02C813D8165
:1011D0002230310571F18C819D8183309105E9F1D7
:1011E00051C0ABE3B0E0EBE3F0E08081482F8B81AE
:1011F000282F30E081E090E0022E02C0880F991F76
:101200000A94E2F784278C933DC0A8E3B0E0E8E3BA
:10121000F0E08081482F8B81282F30E081E090E042
:10122000022E02C0880F991F0A94E2F784278C933C
:1012300029C0A5E3B0E0E5E3F0E08081482F8B8191
:10124000282F30E081E090E0022E02C0880F991F25
:101250000A94E2F784278C9315C0A2E3B0E0E2E39E
:10126000F0E08081482F8B81282F30E081E090E0F2
:10127000022E02C0880F991F0A94E2F784278C93EC
:1012800001C0198289810F900F900F900F900F90DD
:10129000CF91DF910895DF93CF9300D000D00F92CC
:1012A000CDB7DEB78A836B838A818430A8F581E06D
:1012B00089838A81282F30E03D832C838C819D8116
:1012C00081309105D1F02C813D81223031052CF403
:1012D0008C819D81009761F020C02C813D8122305E
:1012E000310581F08C819D818330910581F015C09D
:1012F000EAE3F0E08B81808310C0E7E3F0E08B81CC
:1013000080830BC0E4E3F0E08B81808306C0E1E3DF
:10131000F0E08B81808301C0198289810F900F904A
:101320000F900F900F90CF91DF910895DF93CF939F
:1013300000D000D00F92CDB7DEB78A836B838A814D
:101340008430A8F581E089838A81282F30E03D83AD
:101350002C838C819D8181309105D1F02C813D8140
:10136000223031052CF48C819D81009761F020C0E2
:101370002C813D812230310581F08C819D8183302B
:10138000910581F015C0EBE3F0E08B81808310C004
:10139000E8E3F0E08B8180830BC0E5E3F0E08B8134
:1013A000808306C0E2E3F0E08B81808301C0198274
:1013B00089810F900F900F900F900F90CF91DF9138
:1013C0000895DF93CF9300D000D000D0CDB7DEB723
:1013D0008A837C836B838A81882309F4FAC08A819B
:1013E000853108F0F6C08B819C81009709F4F1C02B
:1013F00081E089838A81282F30E03E832D838D818F
:101400009E818930910509F4A5C02D813E812A3045
:101410003105BCF58D819E818430910509F477C03A
:101420002D813E81253031059CF48D819E81823055
:10143000910509F45EC02D813E81233031050CF009
:101440005FC08D819E818130910509F44BC0C2C07F
:101450002D813E812630310509F467C08D819E8142
:10146000863091050CF45AC02D813E81273031051C
:1014700009F462C08D819E818830910509F463C0B2
:10148000A9C02D813E812D30310509F47FC08D81A9
:101490009E818E3091056CF42D813E812B3031057B
:1014A00009F466C08D819E818C3091050CF067C077
:1014B00058C02D813E812F30310509F475C08D81D2
:1014C0009E818F3091050CF468C02D813E812031C2
:1014D000310509F470C08D819E818131910509F437
:1014E00071C078C08B819C81909369008093680063
:1014F00071C08B819C8190936B0080936A006AC05D
:101500008B819C8190936D0080936C0063C08B8174
:101510009C8190936F0080936E005CC08B819C8156
:10152000909371008093700055C08B819C81909343
:101530007300809372004EC08B819C8190937500E4
:101540008093740047C08B819C8190937700809337
:10155000760040C08B819C819093790080937800C5
:1015600039C08B819C8190937B0080937A0032C03C
:101570008B819C8190937D0080937C002BC08B811C
:101580009C81909387008093860024C08B819C81EE
:1015900090937F0080937E001DC08B819C819093EF
:1015A00081008093800016C08B819C819093830082
:1015B000809382000FC08B819C81909385008093E3
:1015C000840008C08B819C8190938900809388005F
:1015D00001C01982898126960FB6F894DEBF0FBE2E
:1015E000CDBFCF91DF910895DF93CF93CDB7DEB715
:1015F000AFE5B0E0EFE5F0E0808180688C93CF91BB
:10160000DF910895DF93CF93CDB7DEB7AFE5B0E0BC
:10161000EFE5F0E080818F778C93CF91DF91089593
:101620001F920F920FB60F9211242F933F934F9357
:101630005F936F937F938F939F93AF93BF93EF933A
:10164000FF93DF93CF93CDB7DEB7E0916800F091C1
:1016500069000995CF91DF91FF91EF91BF91AF9113
:101660009F918F917F916F915F914F913F912F91BA
:101670000F900FBE0F901F9018951F920F920FB6EC
:101680000F9211242F933F934F935F936F937F9308
:101690008F939F93AF93BF93EF93FF93DF93CF937A
:1016A000CDB7DEB7E0916A00F0916B000995CF915C
:1016B000DF91FF91EF91BF91AF919F918F917F91BA
:1016C0006F915F914F913F912F910F900FBE0F90AF
:1016D0001F9018951F920F920FB60F9211242F93FF
:1016E0003F934F935F936F937F938F939F93AF93AA
:1016F000BF93EF93FF93DF93CF93CDB7DEB7E09126
:101700006C00F0916D000995CF91DF91FF91EF9101
:10171000BF91AF919F918F917F916F915F914F9109
:101720003F912F910F900FBE0F901F9018951F9211
:101730000F920FB60F9211242F933F934F935F9305
:101740006F937F938F939F93AF93BF93EF93FF9389
:10175000DF93CF93CDB7DEB7E0916E00F0916F00CD
:101760000995CF91DF91FF91EF91BF91AF919F913B
:101770008F917F916F915F914F913F912F910F903A
:101780000FBE0F901F9018951F920F920FB60F92D9
:1017900011242F933F934F935F936F937F938F9376
:1017A0009F93AF93BF93EF93FF93DF93CF93CDB707
:1017B000DEB7E0917000F09171000995CF91DF9153
:1017C000FF91EF91BF91AF919F918F917F916F9119
:1017D0005F914F913F912F910F900FBE0F901F90EF
:1017E00018951F920F920FB60F9211242F933F93CB
:1017F0004F935F936F937F938F939F93AF93BF9319
:10180000EF93FF93DF93CF93CDB7DEB7E0917200F4
:10181000F09173000995CF91DF91FF91EF91BF9106
:10182000AF919F918F917F916F915F914F913F9178
:101830002F910F900FBE0F901F9018951F920F922F
:101840000FB60F9211242F933F934F935F936F9393
:101850007F938F939F93AF93BF93EF93FF93DF9308
:10186000CF93CDB7DEB7E0917400F0917500099584
:10187000CF91DF91FF91EF91BF91AF919F918F91A8
:101880007F916F915F914F913F912F910F900FBE7C
:101890000F901F9018951F920F920FB60F92112460
:1018A0002F933F934F935F936F937F938F939F9368
:1018B000AF93BF93EF93FF93DF93CF93CDB7DEB793
:1018C000E0917600F09177000995CF91DF91FF913B
:1018D000EF91BF91AF919F918F917F916F915F91A8
:1018E0004F913F912F910F900FBE0F901F90189521
:1018F0001F920F920FB60F9211242F933F934F9385
:101900005F936F937F938F939F93AF93BF93EF9367
:10191000FF93DF93CF93CDB7DEB7E0917800F091DE
:1019200079000995CF91DF91FF91EF91BF91AF9130
:101930009F918F917F916F915F914F913F912F91E7
:101940000F900FBE0F901F9018951F920F920FB619
:101950000F9211242F933F934F935F936F937F9335
:101960008F939F93AF93BF93EF93FF93DF93CF93A7
:10197000CDB7DEB7E0917A00F0917B000995CF9169
:10198000DF91FF91EF91BF91AF919F918F917F91E7
:101990006F915F914F913F912F910F900FBE0F90DC
:1019A0001F9018951F920F920FB60F9211242F932C
:1019B0003F934F935F936F937F938F939F93AF93D7
:1019C000BF93EF93FF93DF93CF93CDB7DEB7E09153
:1019D0007C00F0917D000995CF91DF91FF91EF910F
:1019E000BF91AF919F918F917F916F915F914F9137
:1019F0003F912F910F900FBE0F901F9018951F923F
:101A00000F920FB60F9211242F933F934F935F9332
:101A10006F937F938F939F93AF93BF93EF93FF93B6
:101A2000DF93CF93CDB7DEB7E0918600F0918700CA
:101A30000995CF91DF91FF91EF91BF91AF919F9168
:101A40008F917F916F915F914F913F912F910F9067
:101A50000FBE0F901F9018951F920F920FB60F9206
:101A600011242F933F934F935F936F937F938F93A3
:101A70009F93AF93BF93EF93FF93DF93CF93CDB734
:101A8000DEB7E0917E00F0917F000995CF91DF9164
:101A9000FF91EF91BF91AF919F918F917F916F9146
:101AA0005F914F913F912F910F900FBE0F901F901C
:101AB00018951F920F920FB60F9211242F933F93F8
:101AC0004F935F936F937F938F939F93AF93BF9346
:101AD000EF93FF93DF93CF93CDB7DEB7E091800014
:101AE000F09181000995CF91DF91FF91EF91BF9126
:101AF000AF919F918F917F916F915F914F913F91A6
:101B00002F910F900FBE0F901F9018951F920F925C
:101B10000FB60F9211242F933F934F935F936F93C0
:101B20007F938F939F93AF93BF93EF93FF93DF9335
:101B3000CF93CDB7DEB7E0918200F0918300099595
:101B4000CF91DF91FF91EF91BF91AF919F918F91D5
:101B50007F916F915F914F913F912F910F900FBEA9
:101B60000F901F9018951F920F920FB60F9211248D
:101B70002F933F934F935F936F937F938F939F9395
:101B8000AF93BF93EF93FF93DF93CF93CDB7DEB7C0
:101B9000E0918400F09185000995CF91DF91FF914C
:101BA000EF91BF91AF919F918F917F916F915F91D5
:101BB0004F913F912F910F900FBE0F901F9018954E
:101BC0001F920F920FB60F9211242F933F934F93B2
:101BD0005F936F937F938F939F93AF93BF93EF9395
:101BE000FF93DF93CF93CDB7DEB7E0918800F091FC
:101BF00089000995CF91DF91FF91EF91BF91AF914E
:101C00009F918F917F916F915F914F913F912F9114
:101C10000F900FBE0F901F901895DF93CF93CDB705
:101C2000DEB78FE060E00E94400E89E06FEF0E9417
:101C3000400E8BE063E00E94400E8AE068E00E9464
:101C4000400E8CE061E00E94400ECF91DF9108953C
:101C5000DF93CF93CDB7DEB781E064E041E00E942F
:101C60001A07CF91DF910895DF93CF93CDB7DEB7F9
:101C700081E064E040E00E941A07CF91DF9108956F
:101C8000DF93CF93CDB7DEB760970FB6F894DEBF82
:101C90000FBECDBF8F87688B0E94340E80E090E02E
:101CA000A0E8BFE38B879C87AD87BE876B857C856B
:101CB0008D859E8520E030E04AEF54E40E941F02AB
:101CC000DC01CB018F839887A987BA876F817885DC
:101CD00089859A8520E030E040E85FE30E9479033F
:101CE00088232CF481E090E09E838D833FC06F8138
:101CF000788589859A8520E03FEF4FE757E40E9479
:101D0000190318164CF56B857C858D859E8520E022
:101D100030E040E251E40E941F02DC01CB01BC0133
:101D2000CD010E944900DC01CB019E838D830FC051
:101D300088EC90E09C838B838B819C810197F1F7E9
:101D40009C838B838D819E8101979E838D838D8162
:101D50009E81009769F714C06F81788589859A857F
:101D60000E944900DC01CB019E838D838D819E8181
:101D70009A83898389819A810197F1F79A8389836C
:101D80008F850E94C81088890E94C8100E94280E62
:101D900060960FB6F894DEBF0FBECDBFCF91DF9136
:101DA0000895DF93CF930F92CDB7DEB784E0898398
:101DB00089816FE00E94400E8981815089838981E9
:101DC0008823B1F70F90CF91DF910895DF93CF93E0
:101DD00000D000D000D0CDB7DEB76B837C838D837D
:101DE0009E831A828B819C81AD81BE81BB238CF442
:101DF00081E08A838B819C81AD81BE81B095A09565
:101E0000909581959F4FAF4FBF4F8B839C83AD8340
:101E1000BE830E94D10E8B819C81AD81BE810097D3
:101E2000A105B10529F481E060E00E94400E38C0B0
:101E3000198289818F5F89838B819C81AD81BE816D
:101E40002AE030E040E050E0BC01CD010E94CA161B
:101E5000DC01CB01982F8981692F0E94400E8B8174
:101E60009C81AD81BE812AE030E040E050E0BC01C1
:101E7000CD010E94CA16DA01C9018B839C83AD8310
:101E8000BE838B819C81AD81BE810097A105B10588
:101E900081F68A81882321F089816AE00E94400EC0
:101EA00026960FB6F894DEBF0FBECDBFCF91DF915F
:101EB0000895DF93CF93CDB7DEB783E06FEF0E9435
:101EC0004B0983E060E00E94960982E06FEF0E9478
:101ED0004B0982E060E00E94960980E067E041E003
:101EE0000E94090680E067E040E00E941A0780E057
:101EF00061E041E00E94090680E061E040E00E946C
:101F00001A0780E063E041E00E94090680E063E098
:101F100040E00E941A0780E064E041E00E94090668
:101F200080E064E041E00E941A0780E065E041E063
:101F30000E94090680E065E041E00E941A0780E007
:101F400066E041E00E94090680E066E040E00E9411
:101F50001A07CF91DF910895DF93CF9300D000D07F
:101F60000F92CDB7DEB769837A838B839C834D83D1
:101F70004BE350E0EBE3F0E08081282F2F7789815D
:101F80009A81AB81BC81CD01AA27BB278170822BAE
:101F9000FA018083ABE3B0E0EBE3F0E0808188609E
:101FA0008C93E2E3F0E089819A81AB81BC81892F37
:101FB0009A2FAB2FBB278083ABE3B0E0EBE3F0E0DD
:101FC0008081877F8C93E2E3F0E08981808380E0E9
:101FD00066E040E00E941A0780E064E041E00E9471
:101FE0001A0780E065E040E00E941A0780E065E0A3
:101FF00041E00E941A070F900F900F900F900F90E2
:10200000CF91DF910895DF93CF9300D000D0CDB76B
:10201000DEB769837A838B839C8389819A81AB81C4
:10202000BC81CD01AA27BB27982F917080E067E083
:10203000492F0E941A07ABE3B0E0EBE3F0E08081A8
:1020400088608C9389819A81AB81BC81072E7DE069
:10205000B695A795979587957A95D1F7702D982F76
:10206000917080E061E0492F0E941A0742E350E03E
:10207000E2E3F0E08081282F207289819A81AB8190
:10208000BC81892F9A2FAB2FBB278F7D822BFA0122
:102090008083ABE3B0E0EBE3F0E08081877F8C935B
:1020A00089819A81AB81BC81689414F8B695A79513
:1020B000979587951694D1F7982F917080E061E0FD
:1020C000492F0E941A07A2E3B0E0E2E3F0E080812A
:1020D000982F907289818F7D892B8C93ABE3B0E030
:1020E000EBE3F0E0808180628C93ABE3B0E0EBE364
:1020F000F0E080818F7E8C93ABE3B0E0EBE3F0E027
:1021000080818F7B8C93E3E3F0E0808180938A0071
:10211000ABE3B0E0EBE3F0E0808180618C938091F1
:102120008A000F900F900F900F90CF91DF9108953C
:10213000DF93CF93CDB7DEB7EDE2F0E082E58083A9
:10214000ADE2B0E0EDE2F0E0808180618C93CF9170
:10215000DF910895DF93CF9300D00F92CDB7DEB714
:1021600089837B836A83EFE2F0E089818083EEE2FA
:10217000F0E080818823DCF7EFE2F0E08081EA8103
:10218000FB8180830F900F900F90CF91DF91089586
:10219000DF93CF930F92CDB7DEB78983EFE2F0E004
:1021A00089818083EEE2F0E080818823DCF70F9064
:1021B000CF91DF910895DF93CF9300D0CDB7DEB7F5
:1021C00089836A83E3E5F0E08AE08083898188235C
:1021D00021F0E2E5F0E0898180838A81882321F083
:1021E000ECE5F0E08A818083A9E5B0E0E9E5F0E084
:1021F00080818E7F8C93A9E5B0E0E9E5F0E08081F5
:1022000082608C930F900F90CF91DF9108950F9380
:10221000DF93CF93CDB7DEB729970FB6F894DEBF23
:102220000FBECDBF89836A834B832C830D83A3E5C7
:10223000B0E0E3E5F0E08081887F8C93E3E5F0E0B7
:102240008A81882F90E082959295907F9827807F51
:102250009827982F8981982B8B81892B80838C815B
:10226000282F30E03987288788859985009769F07D
:10227000288539852130310579F4A9E5B0E0E9E513
:10228000F0E0808181608C9307C0A9E5B0E0E9E5CA
:10229000F0E080818E7F8C938D81282F30E03F830A
:1022A0002E838E819F81009769F02E813F8121309E
:1022B000310579F4A9E5B0E0E9E5F0E080818260DC
:1022C0008C9307C0A9E5B0E0E9E5F0E080818D7F5F
:1022D0008C9329960FB6F894DEBF0FBECDBFCF9179
:1022E000DF910F910895DF93CF930F92CDB7DEB7B3
:1022F0008983E2E5F0E0898180830F90CF91DF91BF
:102300000895DF93CF930F92CDB7DEB78983ECE5C5
:10231000F0E0898180830F90CF91DF910895DF9362
:10232000CF93CDB7DEB7A3E5B0E0E3E5F0E0808181
:10233000887F8C93A9E5B0E0E9E5F0E080818E7FAD
:102340008C93A9E5B0E0E9E5F0E080818D7F8C9386
:10235000CF91DF910895DF93CF93CDB7DEB72A9762
:102360000FB6F894DEBF0FBECDBF9C838B837E83F8
:102370006D8358874F833A87298783E0898382E07A
:102380008A838D819E81009731F0EAE4F0E08D81AF
:102390009E81918380838F819885009731F0E8E456
:1023A000F0E08F8198859183808389859A85009755
:1023B00031F0E6E4F0E089859A8591838083A9E590
:1023C000B0E0E9E5F0E0808184608C93A9E5B0E0BD
:1023D000E9E5F0E080818F7E8C93A9E5B0E0E9E546
:1023E000F0E08081877F8C93A9E5B0E0E9E5F0E03B
:1023F00080818F7D8C93EFE4F0E08A818068808318
:10240000EEE4F0E08981882F90E0880F991F880F13
:10241000991F880F991F816080832A960FB6F894C0
:10242000DEBF0FBECDBFCF91DF910895DF93CF9375
:1024300000D0CDB7DEB79A838983EAE4F0E08981E2
:102440009A81918380830F900F90CF91DF910895AF
:10245000DF93CF9300D0CDB7DEB79A838983E8E4CA
:10246000F0E089819A81918380830F900F90CF91C2
:10247000DF910895DF93CF9300D0CDB7DEB79A8375
:102480008983ECE4F0E089819A81918380830F90C5
:102490000F90CF91DF910895DF93CF9300D0CDB708
:1024A000DEB79A838983E6E4F0E089819A8191839B
:1024B00080830F900F90CF91DF910895DF93CF939A
:1024C000CDB7DEB7AEE4B0E0EEE4F0E08081887F27
:1024D0008C93A9E5B0E0E9E5F0E080818B7F8C93F7
:1024E000A9E5B0E0E9E5F0E080818F7E8C93A9E575
:1024F000B0E0E9E5F0E08081877F8C93A9E5B0E06A
:10250000E9E5F0E080818F7D8C93CF91DF91089594
:10251000DF93CF93CDB7DEB72F970FB6F894DEBF1A
:102520000FBECDBF81E08F870E94590F80E062E02F
:1025300040E00E94090680E062E041E00E941A0744
:1025400081E060E041E00E94090681E060E040E057
:102550000E941A0780E060E040E00E9409060E94A5
:10256000A30581E067E041E00E94090681E065E0A3
:1025700041E00E94090681E064E041E00E94090612
:1025800081E064E041E00E941A070E9498100E94D6
:102590000D0E27EA33E18AE0B9010E94E10925EC3A
:1025A00034E189E0B9010E94E10908C09E01215F80
:1025B0003F4F80E062E0A9010E942B088F858130A7
:1025C000A9F380E06DE70E94DB100E94F40A80917D
:1025D000A100813009F0A3C01092A100A8E3B0E0EF
:1025E000E8E3F0E080818E7F8C9380E090E0AAEFBA
:1025F000B4E48B879C87AD87BE876B857C858D8592
:102600009E8520E030E04AEF54E40E941F02DC0186
:10261000CB018F839887A987BA876F817885898551
:102620009A8520E030E040E85FE30E947903882348
:102630002CF481E090E09E838D833FC06F8178858C
:1026400089859A8520E03FEF4FE757E40E94190300
:1026500018164CF56B857C858D859E8520E030E0D5
:1026600040E251E40E941F02DC01CB01BC01CD011C
:102670000E944900DC01CB019E838D830FC088EC52
:1026800090E09C838B838B819C810197F1F79C83E5
:102690008B838D819E8101979E838D838D819E8109
:1026A000009769F714C06F81788589859A850E94A3
:1026B0004900DC01CB019E838D838D819E819A83AD
:1026C000898389819A810197F1F79A83898382E0CE
:1026D00060E00E944B0910928C0010928D001092C5
:1026E0008E0010928F0080918C0090918D00A091AF
:1026F0008E00B0918F00BC01CD010E940310809329
:10270000900080919000282F30E080E090E0B901A7
:1027100040E050E029EF30E00E94AB1158CF8091AB
:10272000A200813009F053CF1092A20081E060E056
:102730000E94400E82E060E00E94400E83E060E074
:102740000E94400E84E060E00E94400E40CFDF9384
:10275000CF93CDB7DEB78091990090919A00A09168
:102760009B00B0919C000196A11DB11D8093990022
:1027700090939A00A0939B00B0939C008091990045
:1027800090919A00A0919B00B0919C0080342FE121
:10279000920720E0A20720E0B207E9F41092990026
:1027A00010929A0010929B0010929C0080919100D0
:1027B00090919200A0919300B09194000196A11D78
:1027C000B11D8093910090939200A0939300B093D9
:1027D00094000E94EE1580918C0090918D00A09144
:1027E0008E00B0918F008030E0E09E07E2E0AE07FF
:1027F000E0E0BE0731F40E948F1181E08093A100D8
:10280000C1C02BE830E080E0B9010E94CD05809185
:102810008B008A3F18F089EF80938B0080918C00A9
:1028200090918D00A0918E00B0918F00CD01AA27CC
:10283000BB27982F917080E067E0492F0E941A070C
:10284000ABE3B0E0EBE3F0E0808188608C938091B3
:102850008C0090918D00A0918E00B0918F00072E7A
:102860007DE0B695A795979587957A95D1F7702DC8
:10287000982F917080E061E0492F0E941A0742E38F
:1028800050E0E2E3F0E08081282F207280918C00FC
:1028900090918D00A0918E00B0918F00892F9A2F7A
:1028A000AB2FBB278F7D822BFA018083ABE3B0E097
:1028B000EBE3F0E08081877F8C9380918C00909196
:1028C0008D00A0918E00B0918F00689414F8B69599
:1028D000A795979587951694D1F7982F917080E0DA
:1028E00061E0492F0E941A0722E330E0E2E3F0E0C2
:1028F0008081482F407280918C0090918D00A09132
:102900008E00B0918F008F7D842BF9018083ABE323
:10291000B0E0EBE3F0E080818F7B8C93ABE3B0E041
:10292000EBE3F0E0808180618C93ABE3B0E0EBE31C
:10293000F0E080818F7D8C93E5E3F0E080918B0067
:102940008083ABE3B0E0EBE3F0E0808180628C93C6
:10295000A8E3B0E0E8E3F0E0808181608C938091AF
:102960008C0090918D00A0918E00B0918F00019607
:10297000A11DB11D80938C0090938D00A0938E00BB
:10298000B0938F00CF91DF910895DF93CF93CDB7B0
:10299000DEB780919D0090919E00A0919F00B09124
:1029A000A0000196A11DB11D80939D0090939E00F3
:1029B000A0939F00B093A00080919D0090919E00F5
:1029C000A0919F00B091A00080302DE7920720E0F9
:1029D000A20720E0B207E9F410929D0010929E0039
:1029E00010929F001092A00080919100909192000F
:1029F000A0919300B09194000197A109B10980932F
:102A0000910090939200A0939300B09394000E9441
:102A1000EE1580918C0090918D00A0918E00B09168
:102A20008F008030E0E09E07E2E0AE07E0E0BE0706
:102A300031F40E945E1281E08093A200CCC08091AC
:102A40009D0090919E00A0919F00B091A000837086
:102A50009070A070B0700097A105B10509F0BBC0DF
:102A600080918C0090918D00A0918E00B0918F008C
:102A70000196A11DB11D80938C0090938D00A093B1
:102A80008E00B0938F0080918C0090918D00A0916A
:102A90008E00B0918F00CD01AA27BB27982F91708F
:102AA00080E067E0492F0E941A07ABE3B0E0EBE358
:102AB000F0E0808188608C9380918C0090918D00F3
:102AC000A0918E00B0918F00072E7DE0B695A7955E
:102AD000979587957A95D1F7702D982F917080E012
:102AE00061E0492F0E941A0742E350E0E2E3F0E080
:102AF0008081282F207280918C0090918D00A09170
:102B00008E00B0918F00892F9A2FAB2FBB278F7D1E
:102B1000822BFA018083ABE3B0E0EBE3F0E080814D
:102B2000877F8C9380918C0090918D00A0918E0076
:102B3000B0918F00689414F8B695A79597958795EE
:102B40001694D1F7982F917080E061E0492F0E9490
:102B50001A0722E330E0E2E3F0E08081482F407280
:102B600080918C0090918D00A0918E00B0918F008B
:102B70008F7D842BF9018083ABE3B0E0EBE3F0E0E1
:102B8000808180628C93ABE3B0E0EBE3F0E0808186
:102B90008F7E8C93ABE3B0E0EBE3F0E080818F7B42
:102BA0008C93E3E3F0E0808180939000ABE3B0E0AE
:102BB000EBE3F0E0808180618C9380919000882F1E
:102BC00090E00E941612A8E3B0E0E8E3F0E0908104
:102BD00081E089278C93CF91DF9108951F93DF9334
:102BE000CF9300D0CDB7DEB71A82198280919100C1
:102BF00090919200A0919300B09194002CE330E06A
:102C000040E050E0BC01CD010E94A816DA01C901E4
:102C100089838091910090919200A0919300B0914E
:102C20009400182F8981882F90E0A0E0B0E02CE379
:102C300030E040E050E0BC01CD010E947D16DC0197
:102C4000CB01912F981B892F8A838A819AE0692F63
:102C50000E949C168093960080919600882F90E0A9
:102C60009C01220F331FC901880F991F880F991FDC
:102C7000820F931F909581959F4F982F8A81890F7E
:102C80008093950089819AE0692F0E949C16809319
:102C9000980080919800882F90E09C01220F331FAC
:102CA000C901880F991F880F991F820F931F909554
:102CB00081959F4F982F8981890F809397009091DC
:102CC000950081E0692F0E94400E9091960082E06D
:102CD000692F0E94400E9091970083E0692F0E9417
:102CE000400E9091980084E0692F0E94400E0F9052
:102CF0000F90CF91DF911F910895629FD001739F34
:102D0000F001829FE00DF11D649FE00DF11D929F87
:102D1000F00D839FF00D749FF00D659FF00D9927C6
:102D2000729FB00DE11DF91F639FB00DE11DF91FEA
:102D3000BD01CF0111240895991B79E004C0991FAA
:102D4000961708F0961B881F7A95C9F78095089505
:102D5000A1E21A2EAA1BBB1BFD010DC0AA1FBB1F9F
:102D6000EE1FFF1FA217B307E407F50720F0A21B11
:102D7000B30BE40BF50B661F771F881F991F1A947E
:102D800069F760957095809590959B01AC01BD01A8
:102D9000CF01089597FB092E05260ED057FD04D0CC
:102DA000D7DF0AD0001C38F4509540953095219516
:102DB0003F4F4F4F5F4F0895F6F790958095709570
:102DC00061957F4F8F4F9F4F08952F923F924F9263
:102DD0005F926F927F928F929F92AF92BF92CF92AB
:102DE000DF92EF92FF920F931F93CF93DF93CDB7B4
:102DF000DEB7CA1BDB0B0FB6F894DEBF0FBECDBF2C
:102E000009942A88398848885F846E847D848C84FC
:102E10009B84AA84B984C884DF80EE80FD800C8105
:102E20001B81AA81B981CE0FD11D0FB6F894DEBFE8
:0C2E30000FBECDBFED010895F894FFCF58
:082E3C0000000000000000008E
:00000001FF
